{
  "_format": "hh-sol-artifact-1",
  "contractName": "Election",
  "sourceName": "contracts/Election.sol",
  "abi": [
    {
      "inputs": [
        {
          "internalType": "string[]",
          "name": "candidateNames",
          "type": "string[]"
        }
      ],
      "stateMutability": "nonpayable",
      "type": "constructor"
    },
    {
      "anonymous": false,
      "inputs": [
        {
          "indexed": true,
          "internalType": "address",
          "name": "voter",
          "type": "address"
        },
        {
          "indexed": true,
          "internalType": "uint256",
          "name": "candidateIndex",
          "type": "uint256"
        }
      ],
      "name": "VoteCast",
      "type": "event"
    },
    {
      "inputs": [
        {
          "internalType": "uint256",
          "name": "",
          "type": "uint256"
        }
      ],
      "name": "candidates",
      "outputs": [
        {
          "internalType": "string",
          "name": "name",
          "type": "string"
        },
        {
          "internalType": "uint256",
          "name": "voteCount",
          "type": "uint256"
        }
      ],
      "stateMutability": "view",
      "type": "function"
    },
    {
      "inputs": [],
      "name": "getCandidatesCount",
      "outputs": [
        {
          "internalType": "uint256",
          "name": "",
          "type": "uint256"
        }
      ],
      "stateMutability": "view",
      "type": "function"
    },
    {
      "inputs": [
        {
          "internalType": "uint256",
          "name": "index",
          "type": "uint256"
        }
      ],
      "name": "getVotes",
      "outputs": [
        {
          "internalType": "uint256",
          "name": "",
          "type": "uint256"
        }
      ],
      "stateMutability": "view",
      "type": "function"
    },
    {
      "inputs": [
        {
          "internalType": "address",
          "name": "",
          "type": "address"
        }
      ],
      "name": "hasVoted",
      "outputs": [
        {
          "internalType": "bool",
          "name": "",
          "type": "bool"
        }
      ],
      "stateMutability": "view",
      "type": "function"
    },
    {
      "inputs": [
        {
          "internalType": "uint256",
          "name": "candidateIndex",
          "type": "uint256"
        }
      ],
      "name": "vote",
      "outputs": [],
      "stateMutability": "nonpayable",
      "type": "function"
    }
  ],
  "bytecode": "0x60806040523480156200001157600080fd5b506040516200111338038062001113833981810160405281019062000037919062000416565b60018151116200007e576040517f08c379a00000000000000000000000000000000000000000000000000000000081526004016200007590620004c8565b60405180910390fd5b60005b81518110156200017f576000828281518110620000a357620000a2620004ea565b5b60200260200101515111620000ef576040517f08c379a0000000000000000000000000000000000000000000000000000000008152600401620000e69062000569565b60405180910390fd5b60016040518060400160405280848481518110620001125762000111620004ea565b5b60200260200101518152602001600081525090806001815401808255809150506001900390600052602060002090600202016000909190919091506000820151816000019081620001649190620007d6565b50602082015181600101555050808060010191505062000081565b5050620008bd565b6000604051905090565b600080fd5b600080fd5b600080fd5b6000601f19601f8301169050919050565b7f4e487b7100000000000000000000000000000000000000000000000000000000600052604160045260246000fd5b620001eb82620001a0565b810181811067ffffffffffffffff821117156200020d576200020c620001b1565b5b80604052505050565b60006200022262000187565b9050620002308282620001e0565b919050565b600067ffffffffffffffff821115620002535762000252620001b1565b5b602082029050602081019050919050565b600080fd5b600080fd5b600067ffffffffffffffff8211156200028c576200028b620001b1565b5b6200029782620001a0565b9050602081019050919050565b60005b83811015620002c4578082015181840152602081019050620002a7565b60008484015250505050565b6000620002e7620002e1846200026e565b62000216565b90508281526020810184848401111562000306576200030562000269565b5b62000313848285620002a4565b509392505050565b600082601f8301126200033357620003326200019b565b5b815162000345848260208601620002d0565b91505092915050565b6000620003656200035f8462000235565b62000216565b905080838252602082019050602084028301858111156200038b576200038a62000264565b5b835b81811015620003d957805167ffffffffffffffff811115620003b457620003b36200019b565b5b808601620003c389826200031b565b855260208501945050506020810190506200038d565b5050509392505050565b600082601f830112620003fb57620003fa6200019b565b5b81516200040d8482602086016200034e565b91505092915050565b6000602082840312156200042f576200042e62000191565b5b600082015167ffffffffffffffff81111562000450576200044f62000196565b5b6200045e84828501620003e3565b91505092915050565b600082825260208201905092915050565b7f4174206c6561737420322063616e646964617465732072657175697265640000600082015250565b6000620004b0601e8362000467565b9150620004bd8262000478565b602082019050919050565b60006020820190508181036000830152620004e381620004a1565b9050919050565b7f4e487b7100000000000000000000000000000000000000000000000000000000600052603260045260246000fd5b7f43616e646964617465206e616d65207265717569726564000000000000000000600082015250565b60006200055160178362000467565b91506200055e8262000519565b602082019050919050565b60006020820190508181036000830152620005848162000542565b9050919050565b600081519050919050565b7f4e487b7100000000000000000000000000000000000000000000000000000000600052602260045260246000fd5b60006002820490506001821680620005de57607f821691505b602082108103620005f457620005f362000596565b5b50919050565b60008190508160005260206000209050919050565b60006020601f8301049050919050565b600082821b905092915050565b6000600883026200065e7fffffffffffffffffffffffffffffffffffffffffffffffffffffffffffffffff826200061f565b6200066a86836200061f565b95508019841693508086168417925050509392505050565b6000819050919050565b6000819050919050565b6000620006b7620006b1620006ab8462000682565b6200068c565b62000682565b9050919050565b6000819050919050565b620006d38362000696565b620006eb620006e282620006be565b8484546200062c565b825550505050565b600090565b62000702620006f3565b6200070f818484620006c8565b505050565b5b8181101562000737576200072b600082620006f8565b60018101905062000715565b5050565b601f82111562000786576200075081620005fa565b6200075b846200060f565b810160208510156200076b578190505b620007836200077a856200060f565b83018262000714565b50505b505050565b600082821c905092915050565b6000620007ab600019846008026200078b565b1980831691505092915050565b6000620007c6838362000798565b9150826002028217905092915050565b620007e1826200058b565b67ffffffffffffffff811115620007fd57620007fc620001b1565b5b620008098254620005c5565b620008168282856200073b565b600060209050601f8311600181146200084e576000841562000839578287015190505b620008458582620007b8565b865550620008b5565b601f1984166200085e86620005fa565b60005b82811015620008885784890151825560018201915060208501945060208101905062000861565b86831015620008a85784890151620008a4601f89168262000798565b8355505b6001600288020188555050505b505050505050565b61084680620008cd6000396000f3fe608060405234801561001057600080fd5b50600436106100575760003560e01c80630121b93f1461005c57806309eef43e146100785780633477ee2e146100a8578063bb9aa28f146100d9578063ff981099146100f7575b600080fd5b6100766004803603810190610071919061046e565b610127565b005b610092600480360381019061008d91906104f9565b6102d4565b60405161009f9190610541565b60405180910390f35b6100c260048036038101906100bd919061046e565b6102f4565b6040516100d09291906105fb565b60405180910390f35b6100e16103b0565b6040516100ee919061062b565b60405180910390f35b610111600480360381019061010c919061046e565b6103bd565b60405161011e919061062b565b60405180910390f35b6000803373ffffffffffffffffffffffffffffffffffffffff1673ffffffffffffffffffffffffffffffffffffffff16815260200190815260200160002060009054906101000a900460ff16156101b3576040517f08c379a00000000000000000000000000000000000000000000000000000000081526004016101aa90610692565b60405180910390fd5b60018054905081106101fa576040517f08c379a00000000000000000000000000000000000000000000000000000000081526004016101f1906106fe565b60405180910390fd5b60016000803373ffffffffffffffffffffffffffffffffffffffff1673ffffffffffffffffffffffffffffffffffffffff16815260200190815260200160002060006101000a81548160ff02191690831515021790555060018082815481106102665761026561071e565b5b90600052602060002090600202016001016000828254610286919061077c565b92505081905550803373ffffffffffffffffffffffffffffffffffffffff167fa36cc2bebb74db33e9f88110a07ef56e1b31b24b4c4f51b54b1664266e29f45b60405160405180910390a350565b60006020528060005260406000206000915054906101000a900460ff1681565b6001818154811061030457600080fd5b9060005260206000209060020201600091509050806000018054610327906107df565b80601f0160208091040260200160405190810160405280929190818152602001828054610353906107df565b80156103a05780601f10610375576101008083540402835291602001916103a0565b820191906000526020600020905b81548152906001019060200180831161038357829003601f168201915b5050505050908060010154905082565b6000600180549050905090565b60006001805490508210610406576040517f08c379a00000000000000000000000000000000000000000000000000000000081526004016103fd906106fe565b60405180910390fd5b6001828154811061041a5761041961071e565b5b9060005260206000209060020201600101549050919050565b600080fd5b6000819050919050565b61044b81610438565b811461045657600080fd5b50565b60008135905061046881610442565b92915050565b60006020828403121561048457610483610433565b5b600061049284828501610459565b91505092915050565b600073ffffffffffffffffffffffffffffffffffffffff82169050919050565b60006104c68261049b565b9050919050565b6104d6816104bb565b81146104e157600080fd5b50565b6000813590506104f3816104cd565b92915050565b60006020828403121561050f5761050e610433565b5b600061051d848285016104e4565b91505092915050565b60008115159050919050565b61053b81610526565b82525050565b60006020820190506105566000830184610532565b92915050565b600081519050919050565b600082825260208201905092915050565b60005b8381101561059657808201518184015260208101905061057b565b60008484015250505050565b6000601f19601f8301169050919050565b60006105be8261055c565b6105c88185610567565b93506105d8818560208601610578565b6105e1816105a2565b840191505092915050565b6105f581610438565b82525050565b6000604082019050818103600083015261061581856105b3565b905061062460208301846105ec565b9392505050565b600060208201905061064060008301846105ec565b92915050565b7f416c726561647920766f74656400000000000000000000000000000000000000600082015250565b600061067c600d83610567565b915061068782610646565b602082019050919050565b600060208201905081810360008301526106ab8161066f565b9050919050565b7f496e76616c69642063616e64696461746520696e646578000000000000000000600082015250565b60006106e8601783610567565b91506106f3826106b2565b602082019050919050565b60006020820190508181036000830152610717816106db565b9050919050565b7f4e487b7100000000000000000000000000000000000000000000000000000000600052603260045260246000fd5b7f4e487b7100000000000000000000000000000000000000000000000000000000600052601160045260246000fd5b600061078782610438565b915061079283610438565b92508282019050808211156107aa576107a961074d565b5b92915050565b7f4e487b7100000000000000000000000000000000000000000000000000000000600052602260045260246000fd5b600060028204905060018216806107f757607f821691505b60208210810361080a576108096107b0565b5b5091905056fea26469706673582212206a1236d086f4322d579e3cfdde827e312945d6830d506865b626ada47156f04564736f6c63430008180033",
  "linkReferences": {},
  "deployedLinkReferences": {}
}